:020000040800F2
:1000000000000220998A00086D86000875860008A5
:100010007D860008858600088D86000800000000A7
:100020000000000000000000000000001171000846
:10003000958600080000000061730008C97300087D
:10004000E98A0008E98A0008E98A0008E98A0008C4
:10005000E98A0008E98A0008E98A0008E98A0008B4
:10006000E98A0008E98A0008E98A0008E98A0008A4
:10007000E98A0008E98A0008E98A0008E98A000894
:10008000E98A0008E98A0008E98A0008E98A000884
:10009000A5860008B9860008E98A0008E98A0008F0
:1000A000E98A0008E98A0008E98A0008E98A000864
:1000B000E98A0008E98A0008E98A0008E98A000854
:1000C000E98A0008E98A0008E98A0008CD86000864
:1000D000E98A0008E1860008E98A0008E98A000840
:1000E000E98A0008E98A0008E98A0008E98A000824
:1000F000E98A0008F5860008E98A0008E98A00080C
:10010000E98A0008E98A0008E98A0008E98A000803
:10011000E98A0008E98A0008E98A0008E98A0008F3
:10012000098700081D8700083187000845870008F7
:10013000E98A0008E98A0008E98A0008E98A0008D3
:10014000598700086D870008E98A0008E98A0008D5
:10015000E98A00088187000895870008A9870008B8
:10016000E98A0008E98A0008E98A0008E98A0008A3
:10017000E98A0008E98A0008E98A0008000000000E
:08018000E98A0008E98A000881
:1001900010B5054C237833B9044B13B10448AFF3C1
:1001A00000800123237010BD3802002000000000F1
:1001B000140E010808B5034B1BB103490348AFF304
:1001C000008008BD000000003C020020140E010861
:1001D00081F0004102E000BF83F0004330B54FEAF8
:1001E00041044FEA430594EA050F08BF90EA020F65
:1001F0001FBF54EA000C55EA020C7FEA645C7FEAF8
:10020000655C00F0E2804FEA5454D4EB5555B8BF1A
:100210006D420CDD2C4480EA020281EA030382EA8B
:10022000000083EA010180EA020281EA0303362D1D
:1002300088BF30BD11F0004F4FEA01314FF4801CF0
:100240004CEA113102D0404261EB410113F0004F02
:100250004FEA03334CEA133302D0524263EB4303B9
:1002600094EA050F00F0A780A4F10104D5F1200E57
:100270000DDB02FA0EFC22FA05F2801841F10001B2
:1002800003FA0EF2801843FA05F359410EE0A5F186
:1002900020050EF1200E012A03FA0EFC28BF4CF0B7
:1002A000020C43FA05F3C01851EBE37101F000456D
:1002B00007D54FF0000EDCF1000C7EEB00006EEB7A
:1002C0000101B1F5801F1BD3B1F5001F0CD3490804
:1002D0005FEA30004FEA3C0C04F101044FEA44525B
:1002E00012F5800F80F09A80BCF1004F08BF5FEAE2
:1002F000500C50F1000041EB045141EA050130BDC2
:100300005FEA4C0C404141EB0101013C28BFB1F5D3
:10031000801FE9D291F0000F04BF01460020B1FA1E
:1003200081F308BF2033A3F10B03B3F120020CDAF1
:100330000C3208DD02F1140CC2F10C0201FA0CF0CF
:1003400021FA02F10CE002F11402D8BFC2F1200C34
:1003500001FA02F120FA0CFCDCBF41EA0C019040EA
:10036000E41AA2BF01EB0451294330BD6FEA040433
:100370001F3C1CDA0C340EDC04F11404C4F120021E
:1003800020FA04F001FA02F340EA030021FA04F330
:1003900045EA030130BDC4F10C04C4F1200220FA87
:1003A00002F001FA04F340EA0300294630BD21FAC5
:1003B00004F0294630BD94F0000F83F4801306BF8B
:1003C00081F480110134013D4EE77FEA645C18BF7F
:1003D0007FEA655C29D094EA050F08BF90EA020F16
:1003E00005D054EA000C04BF1946104630BD91EA0E
:1003F000030F1EBF0021002030BD5FEA545C05D111
:100400004000494128BF41F0004130BD14F580044F
:100410003CBF01F5801130BD01F0004545F0FE41C3
:1004200041F470014FF0000030BD7FEA645C1ABFF8
:10043000194610467FEA655C1CBF0B46024650EA2F
:10044000013406BF52EA033591EA030F41F400215B
:1004500030BD00BF90F0000F04BF0021704730B5E1
:100460004FF4806404F132044FF000054FF00001B6
:1004700050E700BF90F0000F04BF0021704730B577
:100480004FF4806404F1320410F0004548BF40424C
:100490004FF000013EE700BF42004FEAE2014FEAA1
:1004A00031014FEA02701FBF12F07F4393F07F4F7C
:1004B00081F06051704732F07F4208BF704793F07F
:1004C0007F4F04BF41F40021704730B54FF4607492
:1004D00001F0004521F000411CE700BF50EA010295
:1004E00008BF704730B54FF000050AE050EA01023E
:1004F00008BF704730B511F0004502D5404261EBAE
:1005000041014FF4806404F132045FEA915C3FF4EE
:10051000D8AE4FF003025FEADC0C18BF03325FEA8B
:10052000DC0C18BF033202EBDC02C2F1200300FA3C
:1005300003FC20FA02F001FA03FE40EA0E0021FA61
:1005400002F11444BDE600BF70B54FF0FF0C4CF44F
:10055000E06C1CEA11541DBF1CEA135594EA0C0F01
:1005600095EA0C0F00F0DEF82C4481EA030621EA3C
:100570004C5123EA4C5350EA013518BF52EA033577
:1005800041F4801143F4801338D0A0FB02CE4FF029
:100590000005E1FB02E506F00042E0FB03E54FF059
:1005A0000006E1FB03569CF0000F18BF4EF0010E51
:1005B000A4F1FF04B6F5007F64F5407404D25FEA4D
:1005C0004E0E6D4146EB060642EAC62141EA555100
:1005D0004FEAC52040EA5E504FEACE2EB4F1FD0C42
:1005E00088BFBCF5E06F1ED8BEF1004F08BF5FEAC0
:1005F000500E50F1000041EB045170BD06F0004672
:1006000046EA010140EA020081EA0301B4EB5C041E
:10061000C2BFD4EB0C0541EA045170BD41F4801116
:100620004FF0000E013C00F3AB8014F1360FDEBF3B
:10063000002001F0004170BDC4F10004203C35DA17
:100640000C341BDC04F11404C4F1200500FA05F39A
:1006500020FA04F001FA05F240EA020001F000423B
:1006600021F0004110EBD37021FA04F642EB0601B1
:100670005EEA430E08BF20EAD37070BDC4F10C04DB
:10068000C4F1200500FA04F320FA05F001FA04F29F
:1006900040EA020001F0004110EBD37041F100018B
:1006A0005EEA430E08BF20EAD37070BDC4F1200596
:1006B00000FA05F24EEA020E20FA04F301FA05F2FE
:1006C00043EA020321FA04F001F0004121FA04F2A6
:1006D00020EA020000EBD3705EEA430E08BF20EA76
:1006E000D37070BD94F0000F0FD101F000464000B0
:1006F00041EB010111F4801F08BF013CF7D041EA32
:10070000060195F0000F18BF704703F00046520035
:1007100043EB030313F4801F08BF013DF7D043EA06
:100720000603704794EA0C0F0CEA135518BF95EABC
:100730000C0F0CD050EA410618BF52EA4306D1D143
:1007400081EA030101F000414FF0000070BD50EA62
:10075000410606BF1046194652EA430619D094EAEC
:100760000C0F02D150EA013613D195EA0C0F05D1D6
:1007700052EA03361CBF104619460AD181EA03012A
:1007800001F0004141F0FE4141F470014FF00000E2
:1007900070BD41F0FE4141F4780170BD70B54FF07D
:1007A000FF0C4CF4E06C1CEA11541DBF1CEA1355FD
:1007B00094EA0C0F95EA0C0F00F0A7F8A4EB0504DF
:1007C00081EA030E52EA03354FEA013100F08880D6
:1007D0004FEA03334FF0805545EA131343EA12639F
:1007E0004FEA022245EA111545EA10654FEA002654
:1007F0000EF000419D4208BF964244F1FD0404F50D
:10080000407402D25B084FEA3202B61A65EB030568
:100810005B084FEA32024FF480104FF4002CB6EB25
:10082000020E75EB030E22BFB61A754640EA0C00A5
:100830005B084FEA3202B6EB020E75EB030E22BFE5
:10084000B61A754640EA5C005B084FEA3202B6EB26
:10085000020E75EB030E22BFB61A754640EA9C00E5
:100860005B084FEA3202B6EB020E75EB030E22BFB5
:10087000B61A754640EADC0055EA060E18D04FEA73
:10088000051545EA16754FEA06164FEAC30343EA13
:1008900052734FEAC2025FEA1C1CC0D111F4801FE0
:1008A0000BD141EA00014FF000004FF0004CB6E7D9
:1008B00011F4801F04BF01430020B4F1FD0C88BF78
:1008C000BCF5E06F3FF6AFAEB5EB030C04BFB6EB83
:1008D000020C5FEA500C50F1000041EB045170BD76
:1008E0000EF0004E4EEA113114EB5C04C2BFD4EBA3
:1008F0000C0541EA045170BD41F480114FF0000E27
:10090000013C90E645EA060E8DE60CEA135594EAA2
:100910000C0F08BF95EA0C0F3FF43BAF94EA0C0FA5
:100920000AD150EA01347FF434AF95EA0C0F7FF41A
:1009300025AF104619462CE795EA0C0F06D152EA6E
:1009400003353FF4FDAE1046194622E750EA410652
:1009500018BF52EA43067FF4C5AE50EA41047FF463
:100960000DAF52EA43057FF4EBAE12E74FF0FF3CC8
:1009700006E000BF4FF0010C02E000BF4FF0010C99
:100980004DF804CD4FEA410C7FEA6C5C4FEA430C12
:1009900018BF7FEA6C5C1BD001B050EA410C0CBF61
:1009A00052EA430C91EA030F02BF90EA020F0020C3
:1009B000704710F1000F91EA030F58BF994208BF2A
:1009C00090422CBFD8176FEAE37040F001007047E7
:1009D0004FEA410C7FEA6C5C02D150EA013C07D13E
:1009E0004FEA430C7FEA6C5CD6D152EA033CD3D089
:1009F0005DF8040B704700BF8446104662468C4683
:100A00001946634600E000BF01B5FFF7B7FF0028B5
:100A100048BF10F1000F01BD4DF808EDFFF7F4FFDE
:100A20000CBF012000205DF808FB00BF4DF808ED69
:100A3000FFF7EAFF34BF012000205DF808FB00BF8C
:100A40004DF808EDFFF7E0FF94BF012000205DF8AE
:100A500008FB00BF4DF808EDFFF7CEFF94BF012063
:100A600000205DF808FB00BF4DF808EDFFF7C4FF5C
:100A700034BF012000205DF808FB00BF4FEA4102AF
:100A800012F5001215D211D56FF47873B3EB6252E0
:100A900012D94FEAC12343F0004343EA505311F007
:100AA000004F23FA02F018BF404270474FF0000099
:100AB000704750EA013005D111F0004008BF6FF0D7
:100AC000004070474FF00000704700BF4A0011D24D
:100AD00012F5001211D20DD56FF47873B3EB625298
:100AE0000ED44FEAC12343F0004343EA505323FAA4
:100AF00002F070474FF00000704750EA013002D119
:100B00004FF0FF3070474FF0000070474FEA41024E
:100B1000B2F1E04324BFB3F5001CDCF1FE5C0DD95B
:100B200001F0004C4FEAC0024CEA5070B2F1004FA5
:100B300040EB830008BF20F00100704711F0804FA8
:100B400021D113F13872BCBF01F00040704741F46D
:100B500080114FEA5252C2F11802C2F1200C10FA71
:100B60000CF320FA02F018BF40F001004FEAC12355
:100B70004FEAD32303FA0CFC40EA0C0023FA02F3F9
:100B80004FEA4303CCE77FEA625307D150EA0133CF
:100B90001EBF4FF0FE4040F44000704701F000409F
:100BA00040F0FE4040F40000704700BF53B94AB91E
:100BB000002908BF00281CBF4FF0FF314FF0FF3065
:100BC00000F088B9ADF1080C6DE904CE00F006F82C
:100BD000DDF804E0DDE9022304B070472DE9F047B9
:100BE000089D8E4604468846002B4AD18A42174605
:100BF00062D9B2FA82F64EB1C6F1200301FA06F8C4
:100C000020FA03F3B74043EA0808B4404FEA174E0E
:100C10001FFA87FCB8FBFEF1230C0EFB118843EA98
:100C2000084301FB0CF29A4209D9FB1801F1FF308D
:100C300080F0EA809A4240F2E78002393B449A1AF7
:100C4000A3B2B2FBFEF00EFB102243EA024300FB0C
:100C50000CFC9C4509D9FB1800F1FF3280F0D680CE
:100C60009C4540F2D3803B44023840EA0140A3EB6C
:100C70000C0300211DB1F3400022C5E90032BDE89C
:100C8000F0878B4205D90DB1C5E900010021084666
:100C9000F5E7B3FA83F1002946D1734502D38242C6
:100CA00000F20581841A6EEB030201209046002DAC
:100CB000E5D0C5E90048E2E7002A00F09080B2FAEA
:100CC00082F6002E40F0A4808A1A030C4FEA174ED9
:100CD00080B2BCB20121B2FBFEFC0EFB1C2243EA37
:100CE000024304FB0CF29A4207D9FB180CF1FF38BF
:100CF00002D29A4200F2E080C4469B1AB3FBFEF295
:100D00000EFB123340EA034302FB04F49C4207D972
:100D1000FB1802F1FF3002D29C4200F2CA80024668
:100D20001B1B42EA0C40A5E7C1F120068B4022FACA
:100D300006F71F430EFA01F420FA06F32EFA06FE18
:100D40004FEA1749234300FA01F81FFA87FCBEFB5C
:100D5000F9F01C0C09FB10EE44EA0E4400FB0CFEFB
:100D6000A64502FA01F209D93C1900F1FF3A80F0D8
:100D70009C80A64540F2998002383C44A4EB0E04C6
:100D80001FFA83FEB4FBF9F309FB13444EEA044453
:100D900003FB0CFCA44508D93C1903F1FF3E80F08D
:100DA0008280A4457FD9023B3C4443EA0040A4EB47
:100DB0000C04A0FB02EC64457346E14662D35FD0AD
:100DC0005DB1B8EB030264EB090404FA06F622FAFB
:100DD00001F31E43CC40C5E9006400214FE7B1FB9D
:100DE000F2FC010C41EA0E4180B240EA01423B466E
:100DF00038463C46B846BE462026B1FBF7F1A2EB8A
:100E0000080241EA0C4166E7014618E710462CE764
:100E1000C6F120022EFA02F3B740B14020FA02F2E6
:100E20004FEA174E0A43B3FBFEF8BCB20EFB183371
:100E3000110C41EA034108FB04F9B04089454FEA2F
:100E4000104380B23ED9791808F1FF3C01D28945A0
:100E50001FD8A1EB0901B1FBFEF909FB04F80EFB59
:100E6000191192B242EA0142424529D2BA1809F157
:100E7000FF31C4D24245C2D2A9F102013A44BEE7D1
:100E8000F0459DD2BEEB02036CEB070C0138E14646
:100E900096E7A7EB09094944A8F1020CB1FBFEF95A
:100EA00009FB04F8DBE773467FE7504666E7084630
:100EB000FDE63B44023A33E7ACF1020C3B441CE74D
:100EC00049469CE7A1EB0901C446B1FBFEF909FBC9
:100ED00004F8C4E7704700BF10F8012B11F8013B7C
:100EE000012A28BF9A42F7D0D01A704700000000AC
:100EF00001F0FF01102A2BDB10F0070F08D010F8CB
:100F0000013B013A8B422DD010F0070F42B3F6D1CE
:100F1000F0B441EA012141EA014122F007047FF0E7
:100F200000070023F0E80256083C85EA010586EA3E
:100F3000010685FA47F5A3FA87F586FA47F6A5FA7A
:100F400087F68EB9EED1F0BC01F0FF0102F0070286
:100F500032B110F8013B013A83EA010313B1F8D131
:100F60000020704701387047002D06BF3546033812
:100F7000073815F0010F07D1013015F4807F02BF4B
:100F8000013015F4C03F0130F0BC0138704700BF9C
:100F9000034613F8012B002AFBD1181A01387047B9
:100FA00080B400AF064BD3F88830054A43F4700391
:100FB000C2F8883000BFBD465DF8047B704700BFB3
:100FC00000ED00E080B582B000AF78607B68002B58
:100FD00001D1012341E07B6893F83D30DBB2002B67
:100FE00006D17B68002283F83C20786800F039F84D
:100FF0007B68022283F83D207B681A687B68043393
:101000001946104600F0D2FA7B68012283F8462088
:101010007B68012283F83E207B68012283F83F2011
:101020007B68012283F840207B68012283F84120FD
:101030007B68012283F842207B68012283F84320E9
:101040007B68012283F844207B68012283F84520D5
:101050007B68012283F83D20002318460837BD46EF
:1010600080BD80B483B000AF786000BF0C37BD4650
:101070005DF8047B7047000080B485B000AF7860F5
:101080007B6893F83D30DBB2012B01D001234EE0A9
:101090007B68022283F83D207B681B68DA687B68E6
:1010A0001B6842F00102DA607B681B68234A9342A6
:1010B00022D07B681B68B3F1804F1DD07B681B6812
:1010C0001F4A934218D07B681B681E4A934213D074
:1010D0007B681B681C4A93420ED07B681B681B4AC6
:1010E000934209D07B681B68194A934204D07B68FD
:1010F0001B68184A934211D17B681B689B6803F0F8
:101100000703FB60FB68062B10D07B681B681A681E
:101110007B681B6842F001021A6007E07B681B686D
:101120001A687B681B6842F001021A6000231846A7
:101130001437BD465DF8047B704700BF00000140D6
:101140000004004000080040000C00400004014082
:10115000004001400018004080B582B000AF7860C8
:101160007B68002B01D1012341E07B6893F83D307F
:10117000DBB2002B06D17B68002283F83C20786824
:1011800006F0A4FF7B68022283F83D207B681A6882
:101190007B6804331946104600F008FA7B68012288
:1011A00083F846207B68012283F83E207B68012279
:1011B00083F83F207B68012283F840207B6801226E
:1011C00083F841207B68012283F842207B6801225A
:1011D00083F843207B68012283F844207B68012246
:1011E00083F845207B68012283F83D2000231846C0
:1011F0000837BD4680BD80B584B000AF78607B689D
:101200001B68DB68FB607B681B681B69BB60BB6895
:1012100003F00203002B20D0FB6803F00203002B35
:101220001BD07B681B686FF002021A617B68012289
:101230001A777B681B689B6903F00303002B03D0BC
:10124000786800F095F905E0786800F087F978682B
:1012500000F098F97B6800221A77BB6803F004035A
:10126000002B20D0FB6803F00403002B1BD07B680D
:101270001B686FF004021A617B6802221A777B6890
:101280001B689B6903F44073002B03D0786800F05F
:101290006FF905E0786800F061F9786800F072F99C
:1012A0007B6800221A77BB6803F00803002B20D06C
:1012B000FB6803F00803002B1BD07B681B686FF0F2
:1012C00008021A617B6804221A777B681B68DB6955
:1012D00003F00303002B03D0786800F049F905E020
:1012E000786800F03BF9786800F04CF97B680022E0
:1012F0001A77BB6803F01003002B20D0FB6803F0C3
:101300001003002B1BD07B681B686FF010021A6162
:101310007B6808221A777B681B68DB6903F44073DB
:10132000002B03D0786800F023F905E0786800F01E
:1013300015F9786800F026F97B6800221A77BB68F7
:1013400003F00103002B0CD0FB6803F00103002B1A
:1013500007D07B681B686FF001021A61786806F09D
:1013600011F9BB6803F08003002B0CD0FB6803F07D
:101370008003002B07D07B681B686FF080021A6126
:10138000786800F041FCBB6803F04003002B0CD0F0
:10139000FB6803F04003002B07D07B681B686FF0ED
:1013A00040021A61786800F0F7F8BB6803F0200388
:1013B000002B0CD0FB6803F02003002B07D07B68C8
:1013C0001B686FF020021A61786800F013FC00BF00
:1013D0001037BD4680BD000080B586B000AFF86014
:1013E000B9607A600023FB75FB6893F83C30012BF1
:1013F00001D10223AEE0FB68012283F83C207B6828
:101400000C2B00F29F8001A252F823F04114000837
:101410004515000845150008451500088114000809
:10142000451500084515000845150008C3140008B7
:101430004515000845150008451500080315000866
:10144000FB681B68B968184600F056F9FB681B6812
:101450009A69FB681B6842F008029A61FB681B6886
:101460009A69FB681B6822F004029A61FB681B689A
:101470009969BB681A69FB681B680A439A6164E052
:10148000FB681B68B968184600F0A6F9FB681B6882
:101490009A69FB681B6842F400629A61FB681B68EA
:1014A0009A69FB681B6822F480629A61FB681B687A
:1014B0009969BB681B691A02FB681B680A439A6139
:1014C00043E0FB681B68B968184600F0FBF9FB684D
:1014D0001B68DA69FB681B6842F00802DA61FB6886
:1014E0001B68DA69FB681B6822F00402DA61FB689A
:1014F0001B68D969BB681A69FB681B680A43DA6113
:1015000023E0FB681B68B968184600F04FFAFB68D7
:101510001B68DA69FB681B6842F40062DA61FB68E9
:101520001B68DA69FB681B6822F48062DA61FB6879
:101530001B68D969BB681B691A02FB681B680A43F0
:10154000DA6102E00123FB7500BFFB68002283F82B
:101550003C20FB7D18461837BD4680BD80B483B063
:1015600000AF786000BF0C37BD465DF8047B704764
:1015700080B483B000AF786000BF0C37BD465DF823
:10158000047B704780B483B000AF786000BF0C3735
:10159000BD465DF8047B704780B483B000AF7860CF
:1015A00000BF0C37BD465DF8047B704780B485B042
:1015B00000AF786039607B681B68FB607B68434ADA
:1015C000934213D07B68B3F1804F0FD07B68404AC1
:1015D00093420BD07B683F4A934207D07B683E4AD8
:1015E000934203D07B683D4A934208D1FB6823F0C5
:1015F0007003FB603B685B68FA681343FB607B68C1
:10160000324A93422BD07B68B3F1804F27D07B685E
:101610002F4A934223D07B682E4A93421FD07B6887
:101620002D4A93421BD07B682C4A934217D07B688B
:101630002B4A934213D07B682A4A93420FD07B688F
:10164000294A93420BD07B68284A934207D07B6893
:10165000274A934203D07B68264A934208D1FB680D
:1016600023F44073FB603B68DB68FA681343FB605C
:10167000FB6823F080023B685B691343FB603B68B7
:101680009A687B68DA623B681A687B689A627B6852
:101690000E4A934203D07B68104A934203D13B68C1
:1016A0001A697B681A637B681B6843F004027B68D5
:1016B0001A607B6801225A617B68FA681A6000BF71
:1016C0001437BD465DF8047B704700BF0000014041
:1016D0000004004000080040000C004000040140ED
:1016E0000040014000440140004801400018004013
:1016F000001C00400020004080B487B000AF78603C
:1017000039607B681B6A7B617B681B6A23F001027E
:101710007B681A627B685B683B617B689B69FB60E6
:10172000FB6823F07003FB60FB6823F00303FB609E
:101730003B681B68FA681343FB607B6923F0020374
:101740007B613B689B687A6913437B617B68204AB5
:10175000934203D07B681F4A93420CD17B6923F0EC
:1017600008037B613B68DB687A6913437B617B69B3
:1017700023F004037B617B68154A934203D07B68A6
:10178000144A934211D13B6923F480733B613B6956
:1017900023F400733B613B685B693A6913433B6127
:1017A0003B689B693A6913433B617B683A695A60BD
:1017B0007B68FA689A613B685A687B685A637B6801
:1017C0007A691A6200BF1C37BD465DF8047B70471A
:1017D000000001400004014080B487B000AF786091
:1017E00039607B681B6A7B617B681B6A23F010028F
:1017F0007B681A627B685B683B617B689B69FB6006
:10180000FB6823F4E043FB60FB6823F44073FB6058
:101810003B681B681B02FA681343FB607B6923F07B
:1018200020037B613B689B681B017A6913437B61E2
:101830007B68224A934203D07B68214A93420DD1B0
:101840007B6923F080037B613B68DB681B017A695D
:1018500013437B617B6923F040037B617B68174AFC
:10186000934203D07B68164A934213D13B6923F419
:1018700080633B613B6923F400633B613B685B69C8
:101880009B003A6913433B613B689B699B003A6943
:1018900013433B617B683A695A607B68FA689A61D6
:1018A0003B685A687B689A637B687A691A6200BFF2
:1018B0001C37BD465DF8047B704700BF0000014047
:1018C0000004014080B487B000AF786039607B6865
:1018D0001B6A7B617B681B6A23F480727B681A62D7
:1018E0007B685B683B617B68DB69FB60FB6823F0BE
:1018F0007003FB60FB6823F00303FB603B681B681D
:10190000FA681343FB607B6923F400737B613B68D7
:101910009B681B027A6913437B617B68214A93426F
:1019200003D07B68204A93420DD17B6923F4006386
:101930007B613B68DB681B027A6913437B617B69CF
:1019400023F480637B617B68164A934203D07B68F3
:10195000154A934213D13B6923F480533B613B69A1
:1019600023F400533B613B685B691B013A691343F5
:101970003B613B689B691B013A6913433B617B6890
:101980003A695A607B68FA68DA613B685A687B6832
:10199000DA637B687A691A6200BF1C37BD465DF85E
:1019A000047B7047000001400004014080B487B010
:1019B00000AF786039607B681B6A3B617B681B6A9B
:1019C00023F480527B681A627B685B687B617B686A
:1019D000DB69FB60FB6823F4E043FB60FB6823F4F6
:1019E0004073FB603B681B681B02FA681343FB6093
:1019F0003B6923F400533B613B689B681B033A69D6
:101A000013433B617B68124A934203D07B68114ABF
:101A1000934209D17B6923F480437B613B685B6916
:101A20009B017A6913437B617B687A695A607B68A2
:101A3000FA68DA613B685A687B681A647B683A69BD
:101A40001A6200BF1C37BD465DF8047B704700BFBB
:101A5000000001400004014080B485B000AF786010
:101A600039607B6893F83C30012B01D102235AE0A6
:101A70007B68012283F83C207B68022283F83D20AA
:101A80007B681B685B68FB607B681B689B68BB604E
:101A9000FB6823F07003FB603B681B68FA68134324
:101AA000FB607B681B68FA685A607B681B68214A88
:101AB000934222D07B681B68B3F1804F1DD07B68B6
:101AC0001B681D4A934218D07B681B681B4A9342CF
:101AD00013D07B681B681A4A93420ED07B681B6840
:101AE000184A934209D07B681B68174A934204D076
:101AF0007B681B68154A93420CD1BB6823F08003B6
:101B0000BB603B685B68BA681343BB607B681B685B
:101B1000BA689A607B68012283F83D207B680022C6
:101B200083F83C20002318461437BD465DF8047B3B
:101B3000704700BF00000140000400400008004062
:101B4000000C00400004014000400140001800402B
:101B500080B485B000AF786039600023FB607B689B
:101B600093F83C30012B01D102233DE07B68012238
:101B700083F83C20FB6823F0FF023B68DB681343DB
:101B8000FB60FB6823F440723B689B681343FB6077
:101B9000FB6823F480623B685B681343FB60FB686F
:101BA00023F400623B681B681343FB60FB6823F46B
:101BB00080523B681B691343FB60FB6823F40052AF
:101BC0003B685B691343FB60FB6823F480423B681E
:101BD000DB691343FB607B681B68FA685A647B68A7
:101BE000002283F83C20002318461437BD465DF8D8
:101BF000047B704780B483B000AF786000BF0C37BF
:101C0000BD465DF8047B704780B483B000AF786058
:101C100000BF0C37BD465DF8047B704780B584B0CB
:101C200000AF78607B68002B01D10123EDE07B6879
:101C300093F82030DBB2002B02D1786805F07AFEF1
:101C40007B681B681A687B681B6842F001021A6097
:101C500002F00EFAF86012E002F00AFA0246FB689F
:101C6000D31A0A2B0BD97B685B6A43F400327B687A
:101C70005A627B68052283F820200123C5E07B6837
:101C80001B685B6803F00103002BE5D07B681B68D1
:101C90001A687B681B6822F002021A6002F0E8F9F9
:101CA000F86012E002F0E4F90246FB68D31A0A2B4E
:101CB0000BD97B685B6A43F400327B685A627B68AD
:101CC000052283F8202001239FE07B681B685B6866
:101CD00003F00203002BE5D17B681B7E012B08D1AA
:101CE0007B681B681A687B681B6842F080021A6078
:101CF00007E07B681B681A687B681B6822F080021B
:101D00001A607B685B7E012B08D17B681B681A68B0
:101D10007B681B6842F040021A6007E07B681B6822
:101D20001A687B681B6822F040021A607B689B7E01
:101D3000012B08D17B681B681A687B681B6842F01E
:101D400020021A6007E07B681B681A687B681B68C2
:101D500022F020021A607B68DB7E012B08D17B68B1
:101D60001B681A687B681B6822F010021A6007E083
:101D70007B681B681A687B681B6842F010021A6057
:101D80007B681B7F012B08D17B681B681A687B6806
:101D90001B6842F008021A6007E07B681B681A683B
:101DA0007B681B6822F008021A607B685B7F012B4E
:101DB00008D17B681B681A687B681B6842F00402C4
:101DC0001A6007E07B681B681A687B681B6822F052
:101DD00004021A607B689A687B68DB681A437B6838
:101DE0001B691A437B685B6942EA03017B685B6895
:101DF0005A1E7B681B680A43DA617B6800225A62BC
:101E00007B68012283F82020002318461037BD4646
:101E100080BD000080B487B000AF786039607B6817
:101E200093F82030FB75FB7D012B03D0FB7D022B4B
:101E300040F0BE80654B3B613B69D3F8003243F014
:101E400001023B69C3F800223B69D3F8003223F456
:101E50007C523B69C3F800223B69D3F800223B68FF
:101E60005B6A1B021A433B69C3F800223B685B694B
:101E700003F01F03012202FA03F3FB603B69D3F86E
:101E80001C22FB68DB431A403B69C3F81C223B68F9
:101E9000DB69002B23D13B69D3F80C22FB68DB43C1
:101EA0001A403B69C3F80C223B68DB6819043B68A5
:101EB0005B689BB23A68526919433B69483243F800
:101EC00032103B689B6819043B681B689AB23B68F8
:101ED0005B690A4339694833DB000B445A603B684D
:101EE000DB69012B22D13B69D3F80C22FB681A4332
:101EF0003B69C3F80C223B681B6819043B685B68AC
:101F00009BB23A68526919433B69483243F8321030
:101F10003B689B6819043B68DB689AB23B685B6965
:101F20000A4339694833DB000B445A603B689B69BC
:101F3000002B09D13B69D3F80422FB68DB431A402C
:101F40003B69C3F8042207E03B69D3F80422FB682D
:101F50001A433B69C3F804223B681B69002B09D173
:101F60003B69D3F81422FB68DB431A403B69C3F892
:101F7000142207E03B69D3F81422FB681A433B693B
:101F8000C3F814223B681B6A012B07D13B69D3F8C5
:101F90001C22FB681A433B69C3F81C223B69D3F837
:101FA000003223F001023B69C3F80022002306E05F
:101FB0007B685B6A43F480227B685A62012318467F
:101FC0001C37BD465DF8047B704700BF00640040CD
:101FD00080B584B000AF78607B6893F82030DBB2C6
:101FE000012B2ED17B68022283F820207B681B689E
:101FF0001A687B681B6822F001021A6002F038F848
:10200000F86012E002F034F80246FB68D31A0A2B9B
:102010000BD97B685B6A43F400327B685A627B6849
:10202000052283F82020012312E07B681B685B688F
:1020300003F00103002BE5D17B6800225A620023E4
:1020400006E07B685B6A43F400227B685A620123E6
:1020500018461037BD4680BD80B489B000AFF86027
:10206000B9607A603B60FB6893F82030FB77FB68CF
:102070001B689B68BB61FB7F012B03D0FB7F022B9E
:1020800040F0AD80BB6903F08063002B0AD1BB69CF
:1020900003F00063002B05D1BB6903F08053002BD4
:1020A00000F09580BB691B0E03F003037B610122E6
:1020B0007B699A403B681A60BB689B68002B0DD116
:1020C000BB681B685A05BB68DB68F96809681A4376
:1020D0007B6918331B010B441A600FE0BB685B6817
:1020E000DA00BB689B681A43BB68DB68F96809685B
:1020F0001A437B6918331B010B441A60FB6819688B
:10210000BB681A697B6918331B010B4404331A60DE
:10211000BB681B7D012B11D1FB681A687B691833E2
:102120001B01134404331B68FA68116843F480727E
:102130007B6918331B010B4404331A607B68073337
:102140001B781A067B6806331B781B041A437B68CE
:1021500005331B781B0213437A6804321278104649
:10216000FA68116843EA00027B691B010B4403F51E
:10217000C6731A607B6803331B781A067B680233C8
:102180001B781B041A437B6801331B781B02134323
:102190007A6812781046FA68116843EA00027B698F
:1021A0001B010B4403F5C4731A60FB681A687B6952
:1021B00018331B0113441B68FA68116843F00102CD
:1021C0007B6918331B010B441A6000230EE0FB6887
:1021D0005B6A43F40012FB685A62012306E0FB6865
:1021E0005B6A43F48022FB685A6201231846243755
:1021F000BD465DF8047B704780B485B000AF786061
:102200000023FB607B6893F82030FB72FB7A012B84
:1022100002D0FB7A022B1DD17B681B689B6803F000
:102220008063002B02D0FB680133FB607B681B6876
:102230009B6803F00063002B02D0FB680133FB6056
:102240007B681B689B6803F08053002B02D0FB68FF
:102250000133FB60FB6818461437BD465DF8047B0C
:10226000704780B487B000AFF860B9607A603B60B7
:10227000FB6893F82030FB75FB7D012B03D0FB7DC1
:10228000022B40F00381BB68002B0ED1FB681B685A
:10229000DB6803F00303002B16D1FB685B6A43F491
:1022A0000012FB685A620123F7E0FB681B681B6998
:1022B00003F00303002B07D1FB685B6A43F40012B1
:1022C000FB685A620123E8E0FB681A68BB681B33AD
:1022D0001B0113441B6803F004027B689A607B684F
:1022E0009B68002B0CD1FB681A68BB681B331B0171
:1022F00013441B685B0DC3F30A027B681A600BE092
:10230000FB681A68BB681B331B0113441B68DB089E
:1023100023F060427B685A60FB681A68BB681B3315
:102320001B0113441B6803F002027B68DA60FB6840
:102330001A68BB681B331B01134404331B6803F08A
:102340000803002B03D07B6808221A610BE0FB68AE
:102350001A68BB681B331B01134404331B6803F06A
:102360000F027B681A61FB681A68BB681B331B018C
:10237000134404331B681B0ADAB27B689A61FB685A
:102380001A68BB681B331B01134404331B681B0C06
:102390009AB27B685A61FB681A68BB681B011344D8
:1023A00003F5DC731B68DAB23B681A70FB681A68C5
:1023B000BB681B01134403F5DC731B681A0A3B68F6
:1023C0000133D2B21A70FB681A68BB681B01134450
:1023D00003F5DC731B681A0C3B680233D2B21A7027
:1023E000FB681A68BB681B01134403F5DC731B68A8
:1023F0001A0E3B680333D2B21A70FB681A68BB68C6
:102400001B01134403F5DE731A683B680433D2B230
:102410001A70FB681A68BB681B01134403F5DE736E
:102420001B681A0A3B680533D2B21A70FB681A6837
:10243000BB681B01134403F5DE731B681A0C3B6871
:102440000633D2B21A70FB681A68BB681B011344CA
:1024500003F5DE731B681A0E3B680733D2B21A709D
:10246000BB68002B08D1FB681B68DA68FB681B6837
:1024700042F02002DA6007E0FB681B681A69FB681B
:102480001B6842F020021A61002306E0FB685B6AC9
:1024900043F48022FB685A62012318461C37BD466C
:1024A0005DF8047B704780B485B000AF7860396018
:1024B0000023FB607B6893F82030FB72FB7A012BD2
:1024C00002D0FB7A022B0FD13B68002B06D17B6830
:1024D0001B68DB6803F00303FB6005E07B681B6897
:1024E0001B6903F00303FB60FB6818461437BD4605
:1024F0005DF8047B704780B485B000AF78603960C8
:102500007B6893F82030FB73FB7B012B02D0FB7BB5
:10251000022B09D17B681B6859697B681B683A6884
:102520000A435A61002306E07B685B6A43F4802219
:102530007B685A62012318461437BD465DF8047B58
:10254000704780B58AB000AF786000237B627B68FB
:102550001B685B693B627B681B685B68FB617B682F
:102560001B689B68BB617B681B68DB687B617B6861
:102570001B681B693B617B681B689B69FB603B6A4E
:1025800003F00103002B7CD0BB6903F00103002B97
:1025900023D07B681B6801229A60BB6903F00203A9
:1025A000002B03D0786800F083F916E0BB6903F0D4
:1025B0000403002B04D07B6A43F400637B620CE0CD
:1025C000BB6903F00803002B04D07B6A43F48053FB
:1025D0007B6202E0786800F089F9BB6903F48073DC
:1025E000002B24D07B681B684FF480729A60BB6913
:1025F00003F40073002B03D0786800F063F916E051
:10260000BB6903F48063002B04D07B6A43F400535E
:102610007B620CE0BB6903F40063002B04D07B6A8F
:1026200043F480437B6202E0786800F069F9BB699B
:1026300003F48033002B24D07B681B684FF4803276
:102640009A60BB6903F40033002B03D0786800F074
:1026500043F916E0BB6903F48023002B04D07B6AA6
:1026600043F400437B620CE0BB6903F40023002BBE
:1026700004D07B6A43F480337B6202E0786800F028
:1026800049F93B6A03F00803002B0CD07B6903F087
:102690001003002B07D07B6A43F400737B627B68D6
:1026A0001B681022DA603B6A03F00403002B0BD096
:1026B0007B6903F00803002B06D07B681B680822A7
:1026C000DA60786800F030F93B6A03F00203002B0F
:1026D00009D07B681B68DB6803F00303002B02D082
:1026E000786806F0DBFD3B6A03F04003002B0CD05A
:1026F0003B6903F01003002B07D07B6A43F480632F
:102700007B627B681B6810221A613B6A03F020031E
:10271000002B0BD03B6903F00803002B06D07B682D
:102720001B6808221A61786800F008F93B6A03F018
:102730001003002B09D07B681B681B6903F003039F
:10274000002B02D0786806F0B5FD3B6A03F4003335
:10275000002B0BD0FB6903F01003002B06D07B6825
:102760001B6810225A60786800F0F2F83B6A03F4A4
:102770008033002B0BD0FB6903F00803002B06D03D
:102780007B681B6808225A60786800F0EBF83B6AA7
:1027900003F40043002B7BD0FB6903F00403002B00
:1027A00072D03B6A03F48073002B08D0FB6803F0FF
:1027B0000103002B03D07B6A43F001037B623B6A79
:1027C00003F40073002B08D0FB6803F00203002B16
:1027D00003D07B6A43F002037B623B6A03F48063AD
:1027E000002B08D0FB6803F00403002B03D07B6AA6
:1027F00043F004037B623B6A03F40063002B43D085
:10280000FB6803F07003002B3ED0FB6803F07003FD
:10281000602B2BD0602B2ED8502B22D0502B2AD8B7
:10282000402B19D0402B26D8302B10D0302B22D85B
:10283000102B02D0202B05D01DE07B6A43F008034B
:102840007B6219E07B6A43F010037B6214E07B6AD1
:1028500043F020037B620FE07B6A43F040037B621E
:102860000AE07B6A43F080037B6205E07B6A43F405
:1028700080737B6200E000BF7B681B689A697B689D
:102880001B6822F070029A617B681B6804225A6000
:102890007B6A002B08D07B685A6A7B6A1A437B6884
:1028A0005A62786800F068F800BF2837BD4680BDDE
:1028B00080B483B000AF786000BF0C37BD465DF8D0
:1028C000047B704780B483B000AF786000BF0C37E2
:1028D000BD465DF8047B704780B483B000AF78607C
:1028E00000BF0C37BD465DF8047B704780B483B0F1
:1028F00000AF786000BF0C37BD465DF8047B7047C1
:1029000080B483B000AF786000BF0C37BD465DF87F
:10291000047B704780B483B000AF786000BF0C3791
:10292000BD465DF8047B704780B483B000AF78602B
:1029300000BF0C37BD465DF8047B704780B483B0A0
:1029400000AF786000BF0C37BD465DF8047B704770
:1029500080B483B000AF786000BF0C37BD465DF82F
:10296000047B704780B483B000AF786000BF0C3741
:10297000BD465DF8047B704780B483B000AF7860DB
:1029800000BF0C37BD465DF8047B704780B586B04C
:1029900000AF78607B68002B01D1012367E27B6880
:1029A0001B6803F00103002B75D0884B9B6803F074
:1029B0000C03042B0CD0854B9B6803F00C03082BF5
:1029C00012D1824B5B6803F48003B3F5800F0BD107
:1029D0007E4B1B6803F40033002B5BD07B685B6885
:1029E000002B57D1012342E27B685B68B3F5803F3F
:1029F00006D1764B1B68754A43F4803313601DE0A3
:102A00007B685B68B3F5A02F0CD1704B1B686F4AD5
:102A100043F4802313606D4B1B686C4A43F480338E
:102A200013600BE0694B1B68684A23F48033136022
:102A3000664B1B68654A23F4802313607B685B68E0
:102A4000002B13D001F014FB386108E001F010FBFB
:102A500002463B69D31A642B01D9032307E25B4B7F
:102A60001B6803F40033002BF0D014E001F000FBEE
:102A7000386108E001F0FCFA02463B69D31A642B86
:102A800001D90323F3E1514B1B6803F40033002BFE
:102A9000F0D100E000BF7B681B6803F00203002B4D
:102AA00063D04A4B9B6803F00C03002B0BD0474BC1
:102AB0009B6803F00C03082B1CD1444B5B6803F4A8
:102AC0008003002B16D1414B1B6803F00203002B3F
:102AD00005D07B68DB68012B01D00123C7E13B4BAC
:102AE0001B6823F0F8027B681B69DB00374913433E
:102AF0000B603AE07B68DB68002B20D0344B01226E
:102B00001A6001F0B5FA386108E001F0B1FA024646
:102B10003B69D31A022B01D90323A8E12B4B1B6875
:102B200003F00203002BF0D0284B1B6823F0F802BF
:102B30007B681B69DB00254913430B6015E0244BC0
:102B400000221A6001F094FA386108E001F090FA6E
:102B500002463B69D31A022B01D9032387E11B4BA1
:102B60001B6803F00203002BF0D17B681B6803F0A5
:102B70000803002B36D07B685B69002B16D0154B01
:102B800001221A6001F074FA386108E001F070FA6D
:102B900002463B69D31A022B01D9032367E10B4B91
:102BA0005B6F03F00203002BF0D01BE0094B002207
:102BB0001A6001F05DFA38610EE001F059FA024640
:102BC0003B69D31A022B07D9032350E10038024096
:102BD00000004742800E4742884B5B6F03F00203C0
:102BE000002BEAD17B681B6803F00403002B00F084
:102BF00097800023FB75814B1B6C03F08053002BE7
:102C00000FD10023BB607D4B1B6C7C4A43F080538B
:102C100013647A4B1B6C03F08053BB60BB680123C9
:102C2000FB75774B1B6803F48073002B18D1744B32
:102C30001B68734A43F48073136001F019FA38611A
:102C400008E001F015FA02463B69D31A022B01D9BC
:102C500003230CE16A4B1B6803F48073002BF0D054
:102C60007B689B68012B06D1644B1B6F634A43F062
:102C7000010313671CE07B689B68052B0CD15F4B3D
:102C80001B6F5E4A43F0040313675C4B1B6F5B4A88
:102C900043F0010313670BE0584B1B6F574A23F0B7
:102CA00001031367554B1B6F544A23F0040313674A
:102CB0007B689B68002B15D001F0DAF938610AE0D7
:102CC00001F0D6F902463B69D31A41F288329342A9
:102CD00001D90323CBE0494B1B6F03F00203002B08
:102CE000EED014E001F0C4F938610AE001F0C0F957
:102CF00002463B69D31A41F28832934201D9032339
:102D0000B5E03E4B1B6F03F00203002BEED1FB7DC1
:102D1000012B05D1394B1B6C384A23F080531364C7
:102D20007B689B69002B00F0A180344B9B6803F00B
:102D30000C03082B5CD07B689B69022B41D1314B83
:102D400000221A6001F094F9386108E001F090F96E
:102D500002463B69D31A022B01D9032387E0274B94
:102D60001B6803F00073002BF0D17B68DA697B6885
:102D70001B6A1A437B685B6A9B011A437B689B6AE8
:102D80005B08013B1B041A437B68DB6A1B061B497B
:102D900013434B601B4B01221A6001F069F9386143
:102DA00008E001F065F902463B69D31A022B01D90C
:102DB00003235CE0114B1B6803F00073002BF0D081
:102DC00054E0104B00221A6001F052F9386108E01B
:102DD00001F04EF902463B69D31A022B01D90323B5
:102DE00045E0064B1B6803F00073002BF0D13DE07B
:102DF0007B689B69012B07D1012338E00038024032
:102E000000700040600047421B4B5B68FB607B68C2
:102E10009B69012B28D0FB6803F480027B68DB6987
:102E20009A4221D1FB6803F03F027B681B6A9A42F9
:102E30001AD1FA6847F6C07313407A68526A920151
:102E4000934211D1FB6803F440327B689B6A5B08B4
:102E5000013B1B049A4207D1FB6803F070627B6858
:102E6000DB6A1B069A4201D0012300E000231846CA
:102E70001837BD4680BD00BF0038024080B584B021
:102E800000AF786039607B68002B01D10123CCE072
:102E9000684B1B6803F007033A689A420CD9654BEC
:102EA0003A68D2B21A70634B1B6803F007033A68A2
:102EB0009A4201D00123B8E07B681B6803F002034B
:102EC000002B20D07B681B6803F00403002B05D087
:102ED000594B9B68584A43F4E05393607B681B68E6
:102EE00003F00803002B05D0534B9B68524A43F470
:102EF00060439360504B9B6823F0F0027B689B68B3
:102F00004D4913438B607B681B6803F00103002B62
:102F100044D07B685B68012B07D1474B1B6803F4E7
:102F20000033002B19D101237FE07B685B68022B03
:102F300003D07B685B68032B07D13F4B1B6803F012
:102F40000073002B09D101236FE03B4B1B6803F09A
:102F50000203002B01D1012367E0374B9B6823F06C
:102F600003027B685B68344913438B6001F080F88F
:102F7000F8600AE001F07CF80246FB68D31A41F2DF
:102F80008832934201D903234FE02B4B9B6803F017
:102F90000C027B685B689B009A42EBD1254B1B6857
:102FA00003F007033A689A420CD2224B3A68D2B235
:102FB0001A70204B1B6803F007033A689A4201D04D
:102FC000012332E07B681B6803F00403002B08D068
:102FD000194B9B6823F4E0527B68DB681649134366
:102FE0008B607B681B6803F00803002B09D0124B31
:102FF0009B6823F460427B681B69DB000E49134326
:103000008B6000F021F802460B4B9B681B0903F014
:103010000F030A49CB5C22FA03F3094A1360094BF8
:103020001B68184605F0F6FB002318461037BD460E
:1030300080BD00BF003C024000380240C0110108C2
:1030400000000020040000202DE9B04F90B000AF38
:1030500000237B630023FB6300233B630023BB63EC
:10306000594B9B6803F00C03082B0DD0082B00F282
:10307000A180002B02D0042B03D09BE0534BBB63F9
:103080009BE0534BBB6398E04F4B5B6803F03F03FF
:103090007B634D4B5B6803F48003002B28D04A4BC5
:1030A0005B689B0900223B627A623B6AC3F30800BB
:1030B0000021474B03FB01F2002300FB03F3134401
:1030C000434AA0FB0212FA620A46BA62FA6A134441
:1030D000FB627B6B0022BB61FA61D7E90623D7E96B
:1030E0000A01FDF763FD02460B461346FB6353E0FE
:1030F000354B5B689B0900223B617A613B69C3F3F6
:10310000080A4FF0000B52465B464FF000004FF0AC
:103110000001590141EAD261500102460B46B2EB6F
:103120000A0863EB0B094FF000024FF000034FEA6F
:10313000891343EA98634FEA8812B2EB080463EB01
:1031400009054FF000024FF00003EB0043EA54730F
:10315000E20014461D4614EB0A033B6045EB0B03EB
:103160007B604FF000024FF00003D7E9004529468D
:103170008B02214643EA915321468A0210461946A2
:103180007B6B0022BB60FA60D7E90223FDF70EFDDE
:1031900002460B461346FB630B4B5B681B0C03F0AC
:1031A000030301335B003B63FA6B3B6BB2FBF3F34E
:1031B000BB6302E0054BBB6300BFBB6B18464037E7
:1031C000BD46BDE8B08F00BF003802400024F400C7
:1031D000001BB70080B400AF034B1B681846BD4608
:1031E0005DF8047B704700BF0000002080B500AF91
:1031F000FFF7F0FF0246054B9B689B0A03F00703AD
:103200000349CB5C22FA03F3184680BD0038024024
:10321000D011010880B500AFFFF7DCFF0246054B77
:103220009B685B0B03F007030349CB5C22FA03F3B3
:10323000184680BD00380240D011010880B483B028
:1032400000AF786039607B680F221A60124B9B6870
:1032500003F003027B685A600F4B9B6803F0F00297
:103260007B689A600C4B9B6803F4E0527B68DA60E1
:10327000094B9B68DB0803F4E0527B681A61074B3B
:103280001B6803F007023B681A6000BF0C37BD469D
:103290005DF8047B704700BF00380240003C0240EC
:1032A00080B489B000AF7860396000237B6100236F
:1032B0003B610023BB610023FB616BE10122FB69E1
:1032C00002FA03F37B613B681B687A6913403B6138
:1032D0003A697B699A4240F05A813B685B6803F027
:1032E0000303012B05D03B685B6803F00303022B4B
:1032F00030D17B689B68BB61FB695B00032202FAEB
:1033000003F3DB43BA691340BB613B68DA68FB69CE
:103310005B0002FA03F3BA691343BB617B68BA69C5
:103320009A607B685B68BB610122FB6902FA03F368
:10333000DB43BA691340BB613B685B681B0903F060
:103340000102FB6902FA03F3BA691343BB617B68AC
:10335000BA695A603B685B6803F00303032B17D01C
:103360007B68DB68BB61FB695B00032202FA03F345
:10337000DB43BA691340BB613B689A68FB695B0039
:1033800002FA03F3BA691343BB617B68BA69DA6076
:103390003B685B6803F00303022B23D1FB69DA0867
:1033A0007B68083253F82230BB61FB6903F00703E6
:1033B0009B000F2202FA03F3DB43BA691340BB619F
:1033C0003B681A69FB6903F007039B0002FA03F3E9
:1033D000BA691343BB61FB69DA087B680832B969D3
:1033E00043F822107B681B68BB61FB695B0003220A
:1033F00002FA03F3DB43BA691340BB613B685B68C5
:1034000003F00302FB695B0002FA03F3BA6913439A
:10341000BB617B68BA691A603B685B6803F4403340
:10342000002B00F0B4800023FB60604B5B6C5F4AB4
:1034300043F4804353645D4B5B6C03F48043FB6057
:10344000FB685B4AFB699B08023352F82330BB617F
:10345000FB6903F003039B000F2202FA03F3DB4333
:10346000BA691340BB617B68524A93422BD07B6898
:10347000514A934225D07B68504A93421FD07B68C3
:103480004F4A934219D07B684E4A934213D07B68CF
:103490004D4A93420DD07B684C4A934207D07B68DB
:1034A0004B4A934201D107230EE008230CE0062388
:1034B0000AE0052308E0042306E0032304E00223D6
:1034C00002E0012300E00023FA6902F00302920007
:1034D0009340BA691343BB613549FB699B080233CA
:1034E000BA6941F823203B4B9B68BB613B69DB43D6
:1034F000BA691340BB613B685B6803F48013002B1F
:1035000003D0BA693B691343BB61324ABB6993601C
:10351000304BDB68BB613B69DB43BA691340BB617D
:103520003B685B6803F40013002B03D0BA693B6966
:103530001343BB61274ABB69D360264B5B68BB6101
:103540003B69DB43BA691340BB613B685B6803F4CA
:103550000033002B03D0BA693B691343BB611D4A9A
:10356000BB6953601B4B1B68BB613B69DB43BA699A
:103570001340BB613B685B6803F48033002B03D0CE
:10358000BA693B691343BB61124ABB691360FB69AB
:103590000133FB61FB690F2B7FF690AE00BF00BFCC
:1035A0002437BD465DF8047B704700BF00380240F9
:1035B00000380140000002400004024000080240C0
:1035C000000C0240001002400014024000180240AB
:1035D000001C0240003C014080B485B000AF786020
:1035E0000B467B807B681A697B881340002B02D0D6
:1035F0000123FB7301E00023FB73FB7B18461437A8
:10360000BD465DF8047B704780B483B000AF78603E
:103610000B467B8013467B707B78002B03D07A8827
:103620007B689A6103E07B881A047B689A6100BF1B
:103630000C37BD465DF8047B7047000080B586B04E
:1036400000AF786000237B6100F012FD38617B6879
:10365000002B01D1012399E07B68022283F83520F9
:103660007B68002283F834207B681B681A687B68BB
:103670001B6822F001021A600FE000F0F9FC02461C
:103680003B69D31A052B08D97B6820225A657B68D1
:10369000032283F83520032378E07B681B681B68CE
:1036A00003F00103002BE8D17B681B681B687B617A
:1036B0007A69384B13407B617B685A687B689B68EA
:1036C0001A437B68DB681A437B681B691A437B6873
:1036D0005B691A437B689B691A437B68DB691A4301
:1036E0007B681B6A13437A6913437B617B685B6A5F
:1036F000042B07D17B68DA6A7B681B6B13437A69FA
:1037000013437B617B681B687A691A607B681B685E
:103710005B697B617B6923F007037B617B685B6A84
:103720007A6913437B617B685B6A042B17D17B68E2
:103730009B6A7A6913437B617B68DB6A002B0ED03E
:10374000786800F001FB0346002B08D07B6840221C
:103750005A657B68012283F83520012316E07B68D7
:103760001B687A695A61786800F0B8FA0346FB6012
:103770007B68DB6D3F229A40FB689A607B68002281
:103780005A657B68012283F83520002318461837D4
:10379000BD4680BD3F8010F080B586B000AFF860B8
:1037A000B9607A603B600023FB75FB689B6D3B61F1
:1037B000FB6893F83430012B01D1022340E0FB6811
:1037C000012283F83420FB6893F83530DBB2012BFB
:1037D0002FD1FB68022283F83520FB6800225A654E
:1037E0003B687A68B968F86800F04AFAFB68DB6DF4
:1037F0003F229A403B699A60FB681B681A68FB6825
:103800001B6842F016021A60FB681B6C002B07D085
:10381000FB681B681A68FB681B6842F008021A60A4
:10382000FB681B681A68FB681B6842F001021A609B
:1038300005E0FB68002283F834200223FB75FB7D42
:1038400018461837BD4680BD80B584B000AF78609B
:103850007B689B6DFB6000F00BFCB8607B6893F8A5
:103860003530DBB2022B08D07B6880225A657B683A
:10387000002283F83420012352E07B681B681A6819
:103880007B681B6822F016021A607B681B685A6905
:103890007B681B6822F080025A617B681B6C002BDE
:1038A00003D17B689B6C002B07D07B681B681A6870
:1038B0007B681B6822F008021A607B681B681A6824
:1038C0007B681B6822F001021A6013E000F0D0FB55
:1038D0000246BB68D31A052B0CD97B6820225A6597
:1038E0007B68032283F835207B68002283F834202C
:1038F000032315E07B681B681B6803F00103002BA2
:10390000E4D17B68DB6D3F229A40FB689A607B685C
:10391000012283F835207B68002283F834200023BD
:1039200018461037BD4680BD80B483B000AF7860C4
:103930007B6893F83530DBB2022B04D07B688022A1
:103940005A6501230CE07B68052283F835207B68EB
:103950001B681A687B681B6822F001021A6000234A
:1039600018460C37BD465DF8047B704780B586B0BD
:1039700000AF78600023BB608E4B1B688E4AA2FBB1
:1039800003239B0A7B617B689B6D3B613B691B68E2
:10399000FB607B68DB6D08229A40FB681340002BBC
:1039A0001AD07B681B681B6803F00403002B13D03C
:1039B0007B681B681A687B681B6822F004021A6027
:1039C0007B68DB6D08229A403B699A607B685B6D7F
:1039D00043F001027B685A657B68DB6D01229A40E7
:1039E000FB681340002B12D07B681B685B6903F0F7
:1039F0008003002B0BD07B68DB6D01229A403B6972
:103A00009A607B685B6D43F002027B685A657B6855
:103A1000DB6D04229A40FB681340002B12D07B68B8
:103A20001B681B6803F00203002B0BD07B68DB6D67
:103A300004229A403B699A607B685B6D43F0040204
:103A40007B685A657B68DB6D10229A40FB681340E7
:103A5000002B43D07B681B681B6803F00803002B16
:103A60003CD07B68DB6D10229A403B699A607B6892
:103A70001B681B6803F48023002B18D07B681B682D
:103A80001B6803F40023002B08D17B681B6C002B00
:103A900024D07B681B6C786898471FE07B689B6C20
:103AA000002B1BD07B689B6C7868984716E07B687E
:103AB0001B681B6803F48073002B07D17B681B68AD
:103AC0001A687B681B6822F008021A607B681B6C0E
:103AD000002B03D07B681B6C786898477B68DB6D94
:103AE00020229A40FB681340002B00F08F807B68F7
:103AF0001B681B6803F01003002B00F087807B68B5
:103B0000DB6D20229A403B699A607B6893F83530E0
:103B1000DBB2052B36D17B681B681A687B681B6893
:103B200022F016021A607B681B685A697B681B6862
:103B300022F080025A617B681B6C002B03D17B68EA
:103B40009B6C002B07D07B681B681A687B681B681E
:103B500022F008021A607B68DB6D3F229A403B69C5
:103B60009A607B68012283F835207B68002283F805
:103B700034207B681B6D002B7ED07B681B6D7868C2
:103B8000984779E07B681B681B6803F48023002B4F
:103B90001DD07B681B681B6803F40023002B0DD12C
:103BA0007B685B6C002B31D07B685B6C78689847D6
:103BB0002CE000BF00000020B5814E1B7B68DB6B52
:103BC000002B23D07B68DB6B786898471EE07B680E
:103BD0001B681B6803F48073002B0FD17B681B6884
:103BE0001A687B681B6822F010021A607B68012249
:103BF00083F835207B68002283F834207B68DB6BF8
:103C0000002B03D07B68DB6B786898477B685B6D23
:103C1000002B32D07B685B6D03F00103002B22D0B8
:103C20007B68052283F835207B681B681A687B68EF
:103C30001B6822F001021A60BB680133BB607A691D
:103C40009A4207D37B681B681B6803F00103002BB3
:103C5000F2D100E000BF7B68012283F835207B6849
:103C6000002283F834207B68DB6C002B05D07B6856
:103C7000DB6C7868984700E000BF1837BD4680BD10
:103C800080B485B000AFF860B9607A603B60FB68D3
:103C90001B681A68FB681B6822F480221A60FB68A4
:103CA0001B683A685A60FB689B68402B08D1FB6828
:103CB0001B687A689A60FB681B68BA68DA6007E07C
:103CC000FB681B68BA689A60FB681B687A68DA60F0
:103CD00000BF1437BD465DF8047B704780B485B0E3
:103CE00000AF78607B681B68DBB2103B144AA2FB14
:103CF00003231B09FB60134AFB6813441B781A4615
:103D00007B68DA65FB68032B09D97B681B6823F4A1
:103D10007F7323F003031A1D7B689A6507E07B68B5
:103D20001B6823F47F7323F003037A6893657B6831
:103D30009B6D18461437BD465DF8047B704700BF85
:103D4000ABAAAAAAD811010880B485B000AF7860E8
:103D50000023FB737B689B6ABB607B689B69002BBD
:103D60001FD1BB68032B56D801A252F823F000BF25
:103D7000813D0008933D0008813D0008173E000882
:103D80007B68DB6A03F08073002B46D00123FB7352
:103D900043E07B68DB6AB3F1C07F40D10123FB7352
:103DA0003DE07B689B69B3F5005F21D1BB68032BC5
:103DB00037D801A252F823F0C93D0008CF3D0008D2
:103DC000C93D0008E13D00080123FB7330E07B683A
:103DD000DB6A03F08073002B25D00123FB7322E004
:103DE0007B68DB6AB3F1C07F1FD10123FB731CE04A
:103DF000BB68022B03D9BB68032B03D018E0012357
:103E0000FB7315E07B68DB6A03F08073002B0ED038
:103E10000123FB730BE000BF0AE000BF08E000BF16
:103E200006E000BF04E000BF02E000BF00E000BF0A
:103E3000FB7B18461437BD465DF8047B704700BF16
:103E400080B485B000AF78607B6803F00703FB6047
:103E50000C4BDB68BB60BA684FF6FF031340BB60D6
:103E6000FB681A02BB68134343F0BF6343F400339B
:103E7000BB60044ABB68D36000BF1437BD465DF821
:103E8000047B704700ED00E080B400AF044BDB68BA
:103E90001B0A03F007031846BD465DF8047B704714
:103EA00000ED00E080B483B000AF0346FB7197F9EA
:103EB0000730002B0BDBFB7903F01F02074997F952
:103EC00007305B09012000FA02F241F8232000BF0D
:103ED0000C37BD465DF8047B704700BF00E100E091
:103EE00080B483B000AF03463960FB7197F90730A7
:103EF000002B0ADB3B68DAB20C4997F90730120154
:103F0000D2B20B4483F800230AE03B68DAB20849D6
:103F1000FB7903F00F03043B1201D2B20B441A7673
:103F200000BF0C37BD465DF8047B704700E100E040
:103F300000ED00E080B489B000AFF860B9607A604D
:103F4000FB6803F00703FB61FB69C3F10703042B64
:103F500028BF0423BB61FB690433062B02D9FB692C
:103F6000033B00E000237B614FF0FF32BB6902FAA4
:103F700003F3DA43BB681A407B699A404FF0FF3184
:103F80007B6901FA03F3D9437B680B40134318465E
:103F90002437BD465DF8047B704780B582B000AF22
:103FA00078607868FFF74CFF00BF0837BD4680BDDA
:103FB00080B586B000AF0346B9607A60FB7300231A
:103FC0007B61FFF761FF78617A68B9687869FFF70C
:103FD000B1FF024697F90F3011461846FFF780FFF0
:103FE00000BF1837BD4680BD80B582B000AF034624
:103FF000FB7197F907301846FFF754FF00BF0837E9
:10400000BD4680BD80B500AF0E4B1B680D4A43F422
:10401000007313600B4B1B680A4A43F48063136000
:10402000084B1B68074A43F4807313600320FFF7B3
:10403000B4FF0F2004F0EEFB04F0C0FB0023184691
:1040400080BD00BF003C024080B400AF064B1B782F
:104050001A46064B1B681344044A136000BFBD4652
:104060005DF8047B704700BF080000205402002068
:1040700080B400AF034B1B681846BD465DF8047B57
:10408000704700BF5402002080B584B000AF786054
:104090007B68002B01D101232BE17B6893F83D3035
:1040A000DBB2002B06D17B68002283F83C207868C5
:1040B00003F076FD7B68242283F83D207B681B6833
:1040C0001A687B681B6822F001021A607B681B6813
:1040D0001A687B681B6842F400421A607B681B68A0
:1040E0001A687B681B6822F400421A60FFF77EF8AA
:1040F000F8607B685B68814A934207D8FB68804A16
:10410000934294BF01230023DBB206E0FB687D4AA3
:10411000934294BF01230023DBB2002B01D0012383
:10412000E7E0FB68784AA2FB03239B0CBB607B683B
:104130001B685B6823F03F017B681B68BA680A4311
:104140005A607B681B681B6A23F03F017B685B68D1
:104150006A4A934202D8BB68013309E0BB684FF456
:10416000967202FB03F3694AA2FB03239B09013306
:104170007A6812680B4313627B681B68DB6923F45F
:104180004F4222F0FF027B685B685C498B4219D882
:10419000FB68591E7B685B685B00B1FBF3F3591C3D
:1041A00040F6FC730B40002B0AD0FB68591E7B685D
:1041B0005B685B00B1FBF3F30133C3F30B0351E026
:1041C00004234FE07B689B68002B11D1FB68581ECD
:1041D0007B6859680B465B000B44B0FBF3F301337B
:1041E000C3F30B03002B0CBF01230023DBB212E04F
:1041F000FB68581E7B6859680B469B000B4499006E
:104200000B44B0FBF3F30133C3F30B03002B0CBFE0
:1042100001230023DBB2002B01D0012322E07B68C5
:104220009B68002B0ED1FB68581E7B6859680B46B3
:104230005B000B44B0FBF3F30133C3F30B0343F414
:1042400000430FE0FB68581E7B6859680B469B00D3
:104250000B4499000B44B0FBF3F30133C3F30B039E
:1042600043F44043796809681343CB617B681B685A
:104270001B6823F0C0017B68DA697B681B6A1A43FC
:104280007B681B680A431A607B681B689B6823F481
:10429000034323F0FF037A6811697A68D2681143F7
:1042A0007A6812680B4393607B681B68DB6823F0B5
:1042B000FF017B685A697B689B691A437B681B68AE
:1042C0000A43DA607B681B681A687B681B6842F0E7
:1042D00001021A607B6800221A647B68202283F83E
:1042E0003D207B6800221A637B68002283F83E2011
:1042F000002318461037BD4680BD00BFA0860100D0
:104300007F841E00FF083D0083DE1B43D34D6210F7
:1043100080B588B002AFF8607A601A460B467B81A0
:1043200013463B81FFF7A4FE7861FB6893F83D30AC
:10433000DBB2202B40F0E0807B690093192301223F
:104340007049F86800F064F90346002B01D002239D
:10435000D3E0FB6893F83C30012B01D10223CCE081
:10436000FB68012283F83C20FB681B681B6803F094
:104370000103012B07D0FB681B681A68FB681B68E8
:1043800042F001021A60FB681B681A68FB681B6830
:1043900022F400621A60FB68212283F83D20FB684A
:1043A000102283F83E20FB6800221A64FB687A68BA
:1043B0005A62FB683A895A85FB685B8D9AB2FB6842
:1043C0001A85FB68504ADA6279897B693A6AF8682B
:1043D00000F09CF80346002B01D001238DE0002360
:1043E0003B61FB681B685B693B61FB681B689B6901
:1043F0003B613B6966E07A69396AF86800F022FA45
:104400000346002B0DD0FB681B6C042B07D1FB6807
:104410001B681A68FB681B6842F400721A6001236B
:104420006BE0FB685B6A1A78FB681B681A61FB68C3
:104430005B6A5A1CFB685A62FB685B8D9BB2013B4E
:104440009AB2FB685A85FB681B8D013B9AB2FB68E8
:104450001A85FB681B685B6903F00403042B1BD1FE
:10446000FB681B8D002B17D0FB685B6A1A78FB6812
:104470001B681A61FB685B6A5A1CFB685A62FB681E
:104480005B8D9BB2013B9AB2FB685A85FB681B8D22
:10449000013B9AB2FB681A857A69396AF86800F0BC
:1044A00019FA0346002B0DD0FB681B6C042B07D1B7
:1044B000FB681B681A68FB681B6842F400721A608C
:1044C00001231AE0FB681B8D002B94D1FB681B684D
:1044D0001A68FB681B6842F400721A60FB682022AD
:1044E00083F83D20FB68002283F83E20FB68002211
:1044F00083F83C20002300E0022318461837BD460D
:1045000080BD00BF020010000000FFFF80B588B032
:1045100002AFF8607A603B600B467B81FB68DB6A28
:104520007B617B69082B06D07B69012B03D07B69FB
:1045300013F5803F08D1FB681B681A68FB681B688D
:1045400042F480721A600BE0FB681B6B122B07D1E0
:10455000FB681B681A68FB681B6842F480721A606B
:104560003B6800937B6800224FF00111F86800F06F
:104570004FF80346002B0DD0FB681B681B6803F443
:104580008073B3F5807F03D1FB684FF400721A6427
:10459000032335E0FB681B69B3F5804F08D17B89A5
:1045A000DBB21A46FB681B6802F0FE021A611BE0D0
:1045B0007B89DB11DBB203F00603DBB263F00F0390
:1045C000DAB2FB681B681A613B687A680E49F868C2
:1045D00000F098F80346002B01D0012310E07B89FE
:1045E000DAB2FB681B681A613B687A680749F868A9
:1045F00000F088F80346002B01D0012300E00023DF
:1046000018461837BD4680BD0800010002000100B1
:1046100080B584B000AFF860B9603B601346FB71B1
:1046200048E03B68B3F1FF3F44D0FFF721FD02466D
:10463000BB69D31A3A689A4202D33B68002B39D13E
:10464000BB681B0CDBB2012B0DD1FB681B685B69DF
:10465000DA43BB6813409BB2002B0CBF012300233D
:10466000DBB21A460CE0FB681B689B69DA43BB6847
:1046700013409BB2002B0CBF01230023DBB21A4670
:10468000FB799A4216D1FB6800221A63FB6820224C
:1046900083F83D20FB68002283F83E20FB681B6CFA
:1046A00043F02002FB681A64FB68002283F83C2078
:1046B000012323E0BB681B0CDBB2012B0DD1FB688F
:1046C0001B685B69DA43BB6813409BB2002B0CBFCD
:1046D00001230023DBB21A460CE0FB681B689B69D0
:1046E000DA43BB6813409BB2002B0CBF01230023AD
:1046F000DBB21A46FB799A4293D000231846103752
:10470000BD4680BD80B584B000AFF860B9607A6006
:104710003B6071E0FB681B685B6903F48063B3F581
:10472000806F23D1FB681B681A68FB681B6842F422
:1047300000721A60FB681B686FF480625A61FB6844
:1047400000221A63FB68202283F83D20FB680022C8
:1047500083F83E20FB681B6C43F00402FB681A647C
:10476000FB68002283F83C20012367E07B68B3F1FB
:10477000FF3F41D0FFF77CFC02463B68D31A7A68C2
:104780009A4202D37B68002B36D1BB681B0CDBB28C
:10479000012B0CD1FB681B685B69DA43BB681340D3
:1047A0009BB2002B14BF01230023DBB20BE0FB689C
:1047B0001B689B69DA43BB6813409BB2002B14BF94
:1047C00001230023DBB2002B16D0FB6800221A6302
:1047D000FB68202283F83D20FB68002283F83E20FE
:1047E000FB681B6C43F02002FB681A64FB68002224
:1047F00083F83C20012321E0BB681B0CDBB2012BBA
:104800000CD1FB681B685B69DA43BB6813409BB241
:10481000002B14BF01230023DBB20BE0FB681B68F5
:104820009B69DA43BB6813409BB2002B14BF012382
:104830000023DBB2002B7FF46DAF00231846103746
:10484000BD4680BD80B584B000AFF860B9607A60C5
:1048500034E0F86800F086F80346002B01D001230D
:1048600034E0BB68B3F1FF3F28D0FFF701FC0246FC
:104870007B68D31ABA689A4202D3BB68002B1DD159
:10488000FB681B685B6903F08003802B16D0FB6814
:1048900000221A63FB68202283F83D20FB68002277
:1048A00083F83E20FB681B6C43F02002FB681A640F
:1048B000FB68002283F83C20012307E0FB681B68AB
:1048C0005B6903F08003802BC3D1002318461037A7
:1048D000BD4680BD80B584B000AFF860B9607A6035
:1048E00034E0F86800F03EF80346002B01D00123C5
:1048F00034E0BB68B3F1FF3F28D0FFF7B9FB0246B5
:104900007B68D31ABA689A4202D3BB68002B1DD1C8
:10491000FB681B685B6903F00403042B16D0FB687B
:1049200000221A63FB68202283F83D20FB680022E6
:1049300083F83E20FB681B6C43F02002FB681A647E
:10494000FB68002283F83C20012307E0FB681B681A
:104950005B6903F00403042BC3D10023184610370E
:10496000BD4680BD80B483B000AF78607B681B68B3
:104970005B6903F48063B3F5806F1BD17B681B68B0
:104980006FF480625A617B6800221A637B68202280
:1049900083F83D207B68002283F83E207B681B6CF7
:1049A00043F004027B681A647B68002283F83C2091
:1049B000012300E0002318460C37BD465DF8047B58
:1049C000704780B582B000AF78607B68002B01D162
:1049D00001237BE07B685B6A002B08D17B685B6806
:1049E000B3F5827F09D07B680022DA6105E07B683D
:1049F00000221A617B6800225A617B6800229A6259
:104A00007B6893F85130DBB2002B06D17B68002223
:104A100083F85020786803F041F97B68022283F81C
:104A200051207B681B681A687B681B6822F0400273
:104A30001A607B685B6803F482727B689B6803F48E
:104A400004431A437B68DB6803F400631A437B6802
:104A50001B6903F002031A437B685B6903F00103DF
:104A60001A437B689B6903F400731A437B68DB6914
:104A700003F038031A437B681B6A03F0800342EAA1
:104A800003017B689B6A03F400527B681B680A433E
:104A90001A607B689B691B0C03F004017B685B6AEE
:104AA00003F010027B681B680A435A607B681B682E
:104AB000DA697B681B6822F40062DA617B68002295
:104AC0005A657B68012283F8512000231846083775
:104AD000BD4680BD80B588B000AF78607B681B683C
:104AE0005B68FB617B681B689B68BB61BB699B095A
:104AF00003F00103002B0FD1BB6903F00103002B6E
:104B00000AD0FB699B0903F00103002B04D07B68EA
:104B10001B6C78689847D7E0BB695B0803F001031A
:104B2000002B0AD0FB69DB0903F00103002B04D042
:104B30007B685B6C78689847C6E0BB695B0903F0EB
:104B40000103002B0CD1BB699B0903F00103002B6F
:104B500006D1BB691B0A03F00103002B00F0B480EF
:104B6000FB695B0903F00103002B00F0AD80BB691A
:104B70009B0903F00103002B23D07B6893F851308D
:104B8000DBB2032B11D07B685B6D43F004027B68C2
:104B90005A6500237B617B681B68DB687B617B68EF
:104BA0001B689B687B617B690BE000233B617B6832
:104BB0001B68DB683B617B681B689B683B613B69EA
:104BC00082E0BB695B0903F00103002B14D07B6812
:104BD0005B6D43F001027B685A650023FB607B68D4
:104BE0001B689B68FB607B681B681A687B681B6896
:104BF00022F040021A60FB68BB691B0A03F0010344
:104C0000002B0CD07B685B6D43F008027B685A6513
:104C10000023BB607B681B689B68BB60BB687B68CC
:104C20005B6D002B4FD07B681B685A687B681B68E4
:104C300022F0E0025A607B68012283F85120FB6970
:104C400003F00203002B04D1FB6903F00103002BE6
:104C500034D07B681B685A687B681B6822F00302AB
:104C60005A607B68DB6C002B11D07B68DB6C184AC8
:104C70001A657B68DB6C1846FEF756FE0346002B70
:104C800005D07B685B6D43F040027B685A657B68AA
:104C90009B6C002B16D07B689B6C0D4A1A657B6859
:104CA0009B6C1846FEF740FE0346002B0AD07B683B
:104CB0005B6D43F040027B685A6503E0786800F062
:104CC00009F800E000BF00BF2037BD4680BD00BF2F
:104CD000E94C000880B483B000AF786000BF0C37A7
:104CE000BD465DF8047B704780B584B000AF786046
:104CF0007B689B6BFB60FB680022DA87FB68002205
:104D0000DA86F868FFF7E6FF00BF1037BD4680BDC2
:104D100080B582B000AF78607B68002B01D10123A1
:104D200042E07B6893F84130DBB2002B06D17B6810
:104D3000002283F84020786803F018FB7B68242267
:104D400083F841207B681B68DA687B681B6822F463
:104D50000052DA60786800F0B3FE7B681B681A695D
:104D60007B681B6822F490421A617B681B685A6951
:104D70007B681B6822F02A025A617B681B68DA682C
:104D80007B681B6842F40052DA607B6800225A6438
:104D90007B68202283F841207B68202283F8422010
:104DA0007B6800225A63002318460837BD4680BD41
:104DB00080B58CB000AFF860B9601346FB80FB682B
:104DC00093F84230DBB2202B46D1BB68002B02D0D7
:104DD000FB88002B01D101233FE0FB6801221A630D
:104DE000FB6800225A63FB881A46B968F86800F02D
:104DF000FFFB034687F82F30FB681B6B012B25D187
:104E000000233B61FB681B681B683B61FB681B68F8
:104E10005B683B613B69FB681B680C33BB61BB692A
:104E200053E8003F7B617B6943F01003BB62FB6882
:104E30001B680C33BA6A7A623B62396A7A6A41E863
:104E40000023FB61FB69002BE5D102E0012387F819
:104E50002F3097F82F3000E0022318463037BD4638
:104E600080BD000080B5BAB000AF78607B681B6879
:104E70001B68C7F8E4307B681B68DB68C7F8E03064
:104E80007B681B685B69C7F8DC300023C7F8D83043
:104E90000023C7F8D430D7F8E43003F00F03C7F885
:104EA000D830D7F8D830002B0FD1D7F8E43003F042
:104EB0002003002B09D0D7F8E03003F02003002BAB
:104EC00003D0786800F03EFD73E2D7F8D830002BAD
:104ED00000F0DE80D7F8DC3003F00103002B06D1B0
:104EE000D7F8E03003F49073002B00F0D180D7F8AE
:104EF000E43003F00103002B0BD0D7F8E03003F4CB
:104F00008073002B05D07B685B6C43F001027B68EB
:104F10005A64D7F8E43003F00403002B0BD0D7F821
:104F2000DC3003F00103002B05D07B685B6C43F0A1
:104F300002027B685A64D7F8E43003F00203002BC6
:104F40000BD0D7F8DC3003F00103002B05D07B68D1
:104F50005B6C43F004027B685A64D7F8E43003F0DA
:104F60000803002B11D0D7F8E03003F02003002B0A
:104F700005D1D7F8DC3003F00103002B05D07B68A6
:104F80005B6C43F008027B685A647B685B6C002BA7
:104F900000F00A82D7F8E43003F02003002B08D099
:104FA000D7F8E03003F02003002B02D0786800F03F
:104FB000C9FC7B681B685B6903F04003402B0CBF96
:104FC00001230023DBB2C7F8D4307B685B6C03F0AD
:104FD0000803002B03D1D7F8D430002B4FD07868CA
:104FE00000F0D4FB7B681B685B6903F04003402B37
:104FF00041D17B681B681433C7F89C30D7F89C30CC
:1050000053E8003FC7F89830D7F8983023F04003B2
:10501000C7F8D0307B681B681433D7F8D020C7F8A6
:10502000A820C7F8A430D7F8A410D7F8A82041E8E2
:105030000023C7F8A030D7F8A030002BD9D17B6867
:10504000DB6B002B13D07B68DB6B8A4A1A657B68AD
:10505000DB6B1846FEF768FC0346002B16D07B6816
:10506000DB6B1B6D7A68D26B104698470EE0786850
:1050700004F004FA0AE0786804F000FA06E07868C0
:1050800004F0FCF97B6800225A648DE100BF8BE1DB
:105090007B681B6B012B40F06781D7F8E43003F08D
:1050A0001003002B00F06081D7F8E03003F010030C
:1050B000002B00F059810023BB607B681B681B68D4
:1050C000BB607B681B685B68BB60BB687B681B68F8
:1050D0005B6903F04003402B40F0CE807B68DB6BC4
:1050E0001B685B68A7F8BE30B7F8BE30002B00F035
:1050F000A9807B689B8DB7F8BE209A4280F0A28081
:105100007B68B7F8BE20DA857B68DB6BDB69B3F5BB
:10511000807F00F088807B681B680C33C7F888307C
:10512000D7F8883053E8003FC7F88430D7F8843088
:1051300023F48073C7F8B8307B681B680C33D7F84A
:10514000B820C7F89420C7F89030D7F89010D7F857
:10515000942041E80023C7F88C30D7F88C30002B1E
:10516000D9D17B681B6814337B677B6F53E8003FA2
:105170003B673B6F23F00103C7F8B4307B681B68C3
:105180001433D7F8B420C7F88020FB67F96FD7F83D
:10519000802041E80023BB67BB6F002BE1D17B6817
:1051A0001B6814333B663B6E53E8003FFB65FB6DA9
:1051B00023F04003C7F8B0307B681B681433D7F87E
:1051C000B020FA66BB66B96EFA6E41E800237B66D2
:1051D0007B6E002BE3D17B68202283F842207B6822
:1051E00000221A637B681B680C33FB64FB6C53E87A
:1051F000003FBB64BB6C23F01003C7F8AC307B6886
:105200001B680C33D7F8AC20BA657B65796DBA6D35
:1052100041E800233B653B6D002BE3D17B68DB6BF2
:105220001846FEF711FB7B6802225A637B689A8D51
:105230007B68DB8D9BB2D31A9BB21946786804F069
:10524000B9F8B3E07B689B8DB7F8BE209A4240F076
:10525000AD807B68DB6BDB69B3F5807F40F0A680B7
:105260007B6802225A637B689B8D1946786804F03C
:10527000A1F89BE0535800087B689A8D7B68DB8D12
:105280009BB2D31AA7F8CE307B68DB8D9BB2002B84
:1052900000F08E80B7F8CE30002B00F089807B685C
:1052A0001B680C33BB63BB6B53E8003F7B637B6BBA
:1052B00023F49073C7F8C8307B681B680C33D7F8A9
:1052C000C8207A643B64396C7A6C41E80023FB6344
:1052D000FB6B002BE3D17B681B6814337B627B6A1A
:1052E00053E8003F3B623B6A23F00103C7F8C43038
:1052F0007B681B681433D7F8C4203A63FB62F96AF1
:105300003A6B41E80023BB62BB6A002BE3D17B68A8
:10531000202283F842207B6800221A637B681B6886
:105320000C333B613B6953E8003FFB60FB6823F0B3
:105330001003C7F8C0307B681B680C33D7F8C02057
:10534000FA61BB61B969FA6941E800237B617B6955
:10535000002BE3D17B6802225A63B7F8CE3019469E
:10536000786804F027F823E0D7F8E43003F08003EE
:10537000002B09D0D7F8E03003F08003002B03D0D6
:10538000786800F077FA14E0D7F8E43003F04003CF
:10539000002B0ED0D7F8E03003F04003002B08D0EC
:1053A000786800F0B7FA04E000BF02E000BF00E058
:1053B00000BFE837BD4680BD80B483B000AF7860E1
:1053C00000BF0C37BD465DF8047B704780B483B0E6
:1053D00000AF786000BF0C37BD465DF8047B7047B6
:1053E00080B483B000AF786000BF0C37BD465DF875
:1053F000047B704780B59CB000AF78607B689B6B86
:10540000FB667B681B681B6803F48073002B72D1FA
:10541000FB6E0022DA85FB6E1B680C33FB64FB6CB1
:1054200053E8003FBB64BB6C23F48073BB66FB6E28
:105430001B680C33BA6EBA657B65796DBA6D41E84D
:1054400000233B653B6D002BE5D1FB6E1B681433DD
:10545000BB63BB6B53E8003F7B637B6B23F00103B3
:105460007B66FB6E1B6814337A6E7A643B64396C1E
:105470007A6C41E80023FB63FB6B002BE5D1FB6EEC
:105480001B6814337B627B6A53E8003F3B623B6AD4
:1054900023F040033B66FB6E1B6814333A6E3A639D
:1054A000FB62F96A3A6B41E80023BB62BB6A002BDE
:1054B000E5D1FB6E202283F84220FB6E1B6B012B93
:1054C00019D1FB6E1B680C333B613B6953E8003F0D
:1054D000FB60FB6823F01003FB65FB6E1B680C335D
:1054E000FA6DFA61BB61B969FA6941E800237B6131
:1054F0007B69002BE5D1FB6E00225A63FB6E1B6BB0
:10550000012B06D1FB6E9B8D1946F86E03F052FFFE
:1055100002E0F86EFFF75AFF00BF7037BD4680BD4E
:1055200080B584B000AF78607B689B6BFB60FB68E4
:1055300001225A63FB681B6B012B08D1FB689B8D12
:105540005B089BB21946F86803F034FF02E0F86884
:10555000FFF746FF00BF1037BD4680BD80B584B061
:1055600000AF78600023FB607B689B6BBB60BB680F
:105570001B685B6903F08003802B0CBF01230023B1
:10558000DBB2FB60BB6893F84130DBB2212B08D162
:10559000FB68002B05D0BB680022DA84B86800F0F5
:1055A000CDF8BB681B685B6903F04003402B0CBF60
:1055B00001230023DBB2FB60BB6893F84230DBB20F
:1055C000222B08D1FB68002B05D0BB680022DA85AE
:1055D000B86800F0DBF8BB685B6C43F01002BB6896
:1055E0005A64B86803F04AFF00BF1037BD4680BD5B
:1055F00080B598B000AFF860B9601346FB80BA6818
:10560000FB689A62FB68FA889A85FB6800225A64F4
:10561000FB68222283F84220FB68DB6B444ADA6392
:10562000FB68DB6B434A1A64FB68DB6B424ADA6453
:10563000FB68DB6B00221A6507F10803FB65FB685A
:10564000D86BFB681B6804331946FB6D1A68FB882E
:10565000FEF7A2F80346002B08D0FB6810225A641C
:10566000FB68202283F8422001235DE000233B6198
:10567000FB681B681B683B61FB681B685B683B61E0
:105680003B69FB681B69002B19D0FB681B680C3356
:105690003B643B6C53E8003FFB63FB6B43F480735C
:1056A000BB65FB681B680C33BA6DFA64BB64B96CEC
:1056B000FA6C41E800237B647B6C002BE5D1FB682E
:1056C0001B681433FB62FB6A53E8003FBB62BB6A92
:1056D00043F001037B65FB681B6814337A6DBA6382
:1056E0007B63796BBA6B41E800233B633B6B002B18
:1056F000E5D1FB681B681433BB61BB6953E8003F0D
:105700007B617B6943F040033B65FB681B68143396
:105710003A6D7A623B62396A7A6A41E80023FB613A
:10572000FB69002BE5D1002318466037BD4680BDDC
:10573000F5530008215500085D55000880B489B074
:1057400000AF78607B681B680C33FB60FB6853E834
:10575000003FBB60BB6823F0C003FB617B681B6834
:105760000C33FA69BA617B617969BA6941E800234F
:105770003B613B69002BE5D17B68202283F8412007
:1057800000BF2437BD465DF8047B704780B495B0F8
:1057900000AF78607B681B680C337B637B6B53E8DE
:1057A000003F3B633B6B23F49073FB647B681B6897
:1057B0000C33FA6C3A64FB63F96B3A6C41E80023F2
:1057C000BB63BB6B002BE5D17B681B6814333B626A
:1057D0003B6A53E8003FFB61FB6923F00103BB64B4
:1057E0007B681B681433BA6CFA62BB62B96AFA6AE6
:1057F00041E800237B627B6A002BE5D17B681B6B51
:10580000012B19D17B681B680C33FB60FB6853E8E4
:10581000003FBB60BB6823F010037B647B681B68A0
:105820000C337A6CBA617B617969BA6941E800230B
:105830003B613B69002BE5D17B68202283F8422045
:105840007B6800221A6300BF5437BD465DF8047BB5
:10585000704780B584B000AF78607B689B6BFB605D
:10586000FB680022DA85F86803F008FE00BF1037F5
:10587000BD4680BD80B485B000AF78607B6893F88A
:105880004130DBB2212B3ED17B689B68B3F5805F52
:1058900014D17B681B69002B10D17B681B6AFB60ED
:1058A000FB681B881A467B681B68C2F308025A60B3
:1058B0007B681B6A9A1C7B681A6208E07B681B6A1B
:1058C000591C7A6811621A787B681B685A607B6879
:1058D000DB8C9BB2013B9BB27A681946D184002BCA
:1058E0000FD17B681B68DA687B681B6822F0800236
:1058F000DA607B681B68DA687B681B6842F04002EC
:10590000DA60002300E0022318461437BD465DF834
:10591000047B704780B582B000AF78607B681B68FD
:10592000DA687B681B6822F04002DA607B6820221C
:1059300083F841207868FFF73FFD002318460837B9
:10594000BD4680BD80B58CB000AF78600023FB629F
:105950000023BB627B6893F84230DBB2222B40F01D
:10596000AA807B689B68B3F5805F15D17B681B6953
:10597000002B11D17B689B6ABB627B681B685B68EC
:105980009BB2C3F308039AB2BB6A1A807B689B6A16
:105990009A1C7B689A6224E07B689B6AFB627B6846
:1059A0009B68B3F5805F07D07B689B68002B0AD1AA
:1059B0007B681B69002B06D17B681B685B68DAB2C9
:1059C000FB6A1A7008E07B681B685B68DBB203F057
:1059D0007F03DAB2FB6A1A707B689B6A5A1C7B6889
:1059E0009A627B68DB8D9BB2013B9BB27A68194659
:1059F000D185002B5DD17B681B68DA687B681B68EA
:105A000022F02002DA607B681B68DA687B681B681A
:105A100022F48072DA607B681B685A697B681B68B5
:105A200022F001025A617B68202283F842207B68C1
:105A300000225A637B681B6B012B35D17B680022E7
:105A40001A637B681B680C337B617B6953E8003FFA
:105A50003B613B6923F010037B627B681B680C335E
:105A60007A6A3A62FB61F9693A6A41E80023BB61EC
:105A7000BB69002BE5D17B681B681B6803F0100332
:105A8000102B0AD10023FB607B681B681B68FB603E
:105A90007B681B685B68FB60FB687B689B8D1946B5
:105AA000786803F087FC02E07868FFF78FFC00233A
:105AB00002E0002300E0022318463037BD4680BDD7
:105AC0002DE9B04FC0B000AFC7F8F400D7F8F430FC
:105AD0001B681B6923F44050D7F8F430D968D7F815
